:060000000A128A1100291A
:10000800A400030EA5000B1810200B191620250EAE
:100018008300A40E240E0900061C880A861C880387
:100028000B10080003138312063081000313831298
:100038000B11A20A22087D3A031D2428A00AA20156
:020048000800AE
:100200001D2136212F214F21031383128A010A1445
:100210008207C034F934A434B0349934923482342F
:100220008A010A148207C034F934A434B0349934F2
:1002300092348234F8348034903403178316880162
:100240008901031383168501870103138312C030CC
:100250008500C03087008801A001A10108000313B8
:1002600083160F178F120F120F1408000313831633
:1002700081128111011181140110031383120630C0
:1002800081000313831208000A302002031956214B
:100290002008102187002108062185004429031326
:1002A00083128B178B150B108B160800A001A10A67
:0A02B000063021020319A101080025
:04400E00C420FF3F8C
:00000001FF
